{
  "_format": "hh-sol-artifact-1",
  "contractName": "GazaGuardiansNFT",
  "sourceName": "contracts/GazaGuardiansNFT.sol",
  "abi": [
    {
      "inputs": [
        {
          "internalType": "address",
          "name": "initialOwner",
          "type": "address"
        },
        {
          "internalType": "address",
          "name": "_gazaToken",
          "type": "address"
        },
        {
          "internalType": "address",
          "name": "_treasuryAddress",
          "type": "address"
        }
      ],
      "stateMutability": "nonpayable",
      "type": "constructor"
    },
    {
      "inputs": [
        {
          "internalType": "address",
          "name": "sender",
          "type": "address"
        },
        {
          "internalType": "uint256",
          "name": "tokenId",
          "type": "uint256"
        },
        {
          "internalType": "address",
          "name": "owner",
          "type": "address"
        }
      ],
      "name": "ERC721IncorrectOwner",
      "type": "error"
    },
    {
      "inputs": [
        {
          "internalType": "address",
          "name": "operator",
          "type": "address"
        },
        {
          "internalType": "uint256",
          "name": "tokenId",
          "type": "uint256"
        }
      ],
      "name": "ERC721InsufficientApproval",
      "type": "error"
    },
    {
      "inputs": [
        {
          "internalType": "address",
          "name": "approver",
          "type": "address"
        }
      ],
      "name": "ERC721InvalidApprover",
      "type": "error"
    },
    {
      "inputs": [
        {
          "internalType": "address",
          "name": "operator",
          "type": "address"
        }
      ],
      "name": "ERC721InvalidOperator",
      "type": "error"
    },
    {
      "inputs": [
        {
          "internalType": "address",
          "name": "owner",
          "type": "address"
        }
      ],
      "name": "ERC721InvalidOwner",
      "type": "error"
    },
    {
      "inputs": [
        {
          "internalType": "address",
          "name": "receiver",
          "type": "address"
        }
      ],
      "name": "ERC721InvalidReceiver",
      "type": "error"
    },
    {
      "inputs": [
        {
          "internalType": "address",
          "name": "sender",
          "type": "address"
        }
      ],
      "name": "ERC721InvalidSender",
      "type": "error"
    },
    {
      "inputs": [
        {
          "internalType": "uint256",
          "name": "tokenId",
          "type": "uint256"
        }
      ],
      "name": "ERC721NonexistentToken",
      "type": "error"
    },
    {
      "inputs": [],
      "name": "IncorrectPayment",
      "type": "error"
    },
    {
      "inputs": [],
      "name": "MaxSupplyReached",
      "type": "error"
    },
    {
      "inputs": [],
      "name": "NotWhitelisted",
      "type": "error"
    },
    {
      "inputs": [
        {
          "internalType": "address",
          "name": "owner",
          "type": "address"
        }
      ],
      "name": "OwnableInvalidOwner",
      "type": "error"
    },
    {
      "inputs": [
        {
          "internalType": "address",
          "name": "account",
          "type": "address"
        }
      ],
      "name": "OwnableUnauthorizedAccount",
      "type": "error"
    },
    {
      "inputs": [],
      "name": "ReentrancyGuardReentrantCall",
      "type": "error"
    },
    {
      "inputs": [],
      "name": "TransferFailed",
      "type": "error"
    },
    {
      "anonymous": false,
      "inputs": [
        {
          "indexed": true,
          "internalType": "address",
          "name": "owner",
          "type": "address"
        },
        {
          "indexed": true,
          "internalType": "address",
          "name": "approved",
          "type": "address"
        },
        {
          "indexed": true,
          "internalType": "uint256",
          "name": "tokenId",
          "type": "uint256"
        }
      ],
      "name": "Approval",
      "type": "event"
    },
    {
      "anonymous": false,
      "inputs": [
        {
          "indexed": true,
          "internalType": "address",
          "name": "owner",
          "type": "address"
        },
        {
          "indexed": true,
          "internalType": "address",
          "name": "operator",
          "type": "address"
        },
        {
          "indexed": false,
          "internalType": "bool",
          "name": "approved",
          "type": "bool"
        }
      ],
      "name": "ApprovalForAll",
      "type": "event"
    },
    {
      "anonymous": false,
      "inputs": [
        {
          "indexed": false,
          "internalType": "uint256",
          "name": "_fromTokenId",
          "type": "uint256"
        },
        {
          "indexed": false,
          "internalType": "uint256",
          "name": "_toTokenId",
          "type": "uint256"
        }
      ],
      "name": "BatchMetadataUpdate",
      "type": "event"
    },
    {
      "anonymous": false,
      "inputs": [
        {
          "indexed": false,
          "internalType": "uint256",
          "name": "_tokenId",
          "type": "uint256"
        }
      ],
      "name": "MetadataUpdate",
      "type": "event"
    },
    {
      "anonymous": false,
      "inputs": [
        {
          "indexed": true,
          "internalType": "address",
          "name": "previousOwner",
          "type": "address"
        },
        {
          "indexed": true,
          "internalType": "address",
          "name": "newOwner",
          "type": "address"
        }
      ],
      "name": "OwnershipTransferred",
      "type": "event"
    },
    {
      "anonymous": false,
      "inputs": [
        {
          "indexed": true,
          "internalType": "address",
          "name": "from",
          "type": "address"
        },
        {
          "indexed": true,
          "internalType": "address",
          "name": "to",
          "type": "address"
        },
        {
          "indexed": true,
          "internalType": "uint256",
          "name": "tokenId",
          "type": "uint256"
        }
      ],
      "name": "Transfer",
      "type": "event"
    },
    {
      "anonymous": false,
      "inputs": [
        {
          "indexed": false,
          "internalType": "address",
          "name": "newTreasury",
          "type": "address"
        }
      ],
      "name": "TreasuryUpdated",
      "type": "event"
    },
    {
      "inputs": [],
      "name": "MAX_SUPPLY",
      "outputs": [
        {
          "internalType": "uint256",
          "name": "",
          "type": "uint256"
        }
      ],
      "stateMutability": "view",
      "type": "function"
    },
    {
      "inputs": [],
      "name": "MINT_PRICE",
      "outputs": [
        {
          "internalType": "uint256",
          "name": "",
          "type": "uint256"
        }
      ],
      "stateMutability": "view",
      "type": "function"
    },
    {
      "inputs": [],
      "name": "REQUIRED_GAZAIN_BALANCE",
      "outputs": [
        {
          "internalType": "uint256",
          "name": "",
          "type": "uint256"
        }
      ],
      "stateMutability": "view",
      "type": "function"
    },
    {
      "inputs": [
        {
          "internalType": "address",
          "name": "to",
          "type": "address"
        },
        {
          "internalType": "uint256",
          "name": "tokenId",
          "type": "uint256"
        }
      ],
      "name": "approve",
      "outputs": [],
      "stateMutability": "nonpayable",
      "type": "function"
    },
    {
      "inputs": [
        {
          "internalType": "address",
          "name": "owner",
          "type": "address"
        }
      ],
      "name": "balanceOf",
      "outputs": [
        {
          "internalType": "uint256",
          "name": "",
          "type": "uint256"
        }
      ],
      "stateMutability": "view",
      "type": "function"
    },
    {
      "inputs": [],
      "name": "gazaToken",
      "outputs": [
        {
          "internalType": "contract IERC20",
          "name": "",
          "type": "address"
        }
      ],
      "stateMutability": "view",
      "type": "function"
    },
    {
      "inputs": [
        {
          "internalType": "uint256",
          "name": "tokenId",
          "type": "uint256"
        }
      ],
      "name": "getApproved",
      "outputs": [
        {
          "internalType": "address",
          "name": "",
          "type": "address"
        }
      ],
      "stateMutability": "view",
      "type": "function"
    },
    {
      "inputs": [
        {
          "internalType": "address",
          "name": "owner",
          "type": "address"
        },
        {
          "internalType": "address",
          "name": "operator",
          "type": "address"
        }
      ],
      "name": "isApprovedForAll",
      "outputs": [
        {
          "internalType": "bool",
          "name": "",
          "type": "bool"
        }
      ],
      "stateMutability": "view",
      "type": "function"
    },
    {
      "inputs": [
        {
          "internalType": "string",
          "name": "uri",
          "type": "string"
        }
      ],
      "name": "mint",
      "outputs": [],
      "stateMutability": "payable",
      "type": "function"
    },
    {
      "inputs": [],
      "name": "name",
      "outputs": [
        {
          "internalType": "string",
          "name": "",
          "type": "string"
        }
      ],
      "stateMutability": "view",
      "type": "function"
    },
    {
      "inputs": [],
      "name": "owner",
      "outputs": [
        {
          "internalType": "address",
          "name": "",
          "type": "address"
        }
      ],
      "stateMutability": "view",
      "type": "function"
    },
    {
      "inputs": [
        {
          "internalType": "uint256",
          "name": "tokenId",
          "type": "uint256"
        }
      ],
      "name": "ownerOf",
      "outputs": [
        {
          "internalType": "address",
          "name": "",
          "type": "address"
        }
      ],
      "stateMutability": "view",
      "type": "function"
    },
    {
      "inputs": [],
      "name": "renounceOwnership",
      "outputs": [],
      "stateMutability": "nonpayable",
      "type": "function"
    },
    {
      "inputs": [
        {
          "internalType": "address",
          "name": "from",
          "type": "address"
        },
        {
          "internalType": "address",
          "name": "to",
          "type": "address"
        },
        {
          "internalType": "uint256",
          "name": "tokenId",
          "type": "uint256"
        }
      ],
      "name": "safeTransferFrom",
      "outputs": [],
      "stateMutability": "nonpayable",
      "type": "function"
    },
    {
      "inputs": [
        {
          "internalType": "address",
          "name": "from",
          "type": "address"
        },
        {
          "internalType": "address",
          "name": "to",
          "type": "address"
        },
        {
          "internalType": "uint256",
          "name": "tokenId",
          "type": "uint256"
        },
        {
          "internalType": "bytes",
          "name": "data",
          "type": "bytes"
        }
      ],
      "name": "safeTransferFrom",
      "outputs": [],
      "stateMutability": "nonpayable",
      "type": "function"
    },
    {
      "inputs": [
        {
          "internalType": "address",
          "name": "operator",
          "type": "address"
        },
        {
          "internalType": "bool",
          "name": "approved",
          "type": "bool"
        }
      ],
      "name": "setApprovalForAll",
      "outputs": [],
      "stateMutability": "nonpayable",
      "type": "function"
    },
    {
      "inputs": [
        {
          "internalType": "address",
          "name": "_treasuryAddress",
          "type": "address"
        }
      ],
      "name": "setTreasuryAddress",
      "outputs": [],
      "stateMutability": "nonpayable",
      "type": "function"
    },
    {
      "inputs": [
        {
          "internalType": "bytes4",
          "name": "interfaceId",
          "type": "bytes4"
        }
      ],
      "name": "supportsInterface",
      "outputs": [
        {
          "internalType": "bool",
          "name": "",
          "type": "bool"
        }
      ],
      "stateMutability": "view",
      "type": "function"
    },
    {
      "inputs": [],
      "name": "symbol",
      "outputs": [
        {
          "internalType": "string",
          "name": "",
          "type": "string"
        }
      ],
      "stateMutability": "view",
      "type": "function"
    },
    {
      "inputs": [
        {
          "internalType": "uint256",
          "name": "tokenId",
          "type": "uint256"
        }
      ],
      "name": "tokenURI",
      "outputs": [
        {
          "internalType": "string",
          "name": "",
          "type": "string"
        }
      ],
      "stateMutability": "view",
      "type": "function"
    },
    {
      "inputs": [
        {
          "internalType": "address",
          "name": "from",
          "type": "address"
        },
        {
          "internalType": "address",
          "name": "to",
          "type": "address"
        },
        {
          "internalType": "uint256",
          "name": "tokenId",
          "type": "uint256"
        }
      ],
      "name": "transferFrom",
      "outputs": [],
      "stateMutability": "nonpayable",
      "type": "function"
    },
    {
      "inputs": [
        {
          "internalType": "address",
          "name": "newOwner",
          "type": "address"
        }
      ],
      "name": "transferOwnership",
      "outputs": [],
      "stateMutability": "nonpayable",
      "type": "function"
    },
    {
      "inputs": [],
      "name": "treasuryAddress",
      "outputs": [
        {
          "internalType": "address",
          "name": "",
          "type": "address"
        }
      ],
      "stateMutability": "view",
      "type": "function"
    },
    {
      "inputs": [],
      "name": "withdraw",
      "outputs": [],
      "stateMutability": "nonpayable",
      "type": "function"
    }
  ],
  "bytecode": "0x60a060405234801562000010575f80fd5b50604051620036c1380380620036c18339818101604052810190620000369190620003c5565b826040518060400160405280600e81526020017f47617a6120477561726469616e730000000000000000000000000000000000008152506040518060400160405280600581526020017f4755415244000000000000000000000000000000000000000000000000000000815250815f9081620000b3919062000682565b508060019081620000c5919062000682565b5050505f73ffffffffffffffffffffffffffffffffffffffff168173ffffffffffffffffffffffffffffffffffffffff16036200013b575f6040517f1e4fbdf700000000000000000000000000000000000000000000000000000000815260040162000132919062000777565b60405180910390fd5b6200014c816200026b60201b60201c565b5060016200016f620001636200032e60201b60201c565b6200035760201b60201c565b5f01819055505f73ffffffffffffffffffffffffffffffffffffffff168173ffffffffffffffffffffffffffffffffffffffff1603620001e6576040517f08c379a0000000000000000000000000000000000000000000000000000000008152600401620001dd90620007f0565b60405180910390fd5b8173ffffffffffffffffffffffffffffffffffffffff1660808173ffffffffffffffffffffffffffffffffffffffff16815250508060095f6101000a81548173ffffffffffffffffffffffffffffffffffffffff021916908373ffffffffffffffffffffffffffffffffffffffff160217905550600160088190555050505062000810565b5f60075f9054906101000a900473ffffffffffffffffffffffffffffffffffffffff1690508160075f6101000a81548173ffffffffffffffffffffffffffffffffffffffff021916908373ffffffffffffffffffffffffffffffffffffffff1602179055508173ffffffffffffffffffffffffffffffffffffffff168173ffffffffffffffffffffffffffffffffffffffff167f8be0079c531659141344cd1fd0a4f28419497f9722a3daafe3b4186f6b6457e060405160405180910390a35050565b5f7f9b779b17422d0df92223018b32b4d1fa46e071723d6817e2486d003becc55f005f1b905090565b5f819050919050565b5f80fd5b5f73ffffffffffffffffffffffffffffffffffffffff82169050919050565b5f6200038f8262000364565b9050919050565b620003a18162000383565b8114620003ac575f80fd5b50565b5f81519050620003bf8162000396565b92915050565b5f805f60608486031215620003df57620003de62000360565b5b5f620003ee86828701620003af565b93505060206200040186828701620003af565b92505060406200041486828701620003af565b9150509250925092565b5f81519050919050565b7f4e487b71000000000000000000000000000000000000000000000000000000005f52604160045260245ffd5b7f4e487b71000000000000000000000000000000000000000000000000000000005f52602260045260245ffd5b5f60028204905060018216806200049a57607f821691505b602082108103620004b057620004af62000455565b5b50919050565b5f819050815f5260205f209050919050565b5f6020601f8301049050919050565b5f82821b905092915050565b5f60088302620005147fffffffffffffffffffffffffffffffffffffffffffffffffffffffffffffffff82620004d7565b620005208683620004d7565b95508019841693508086168417925050509392505050565b5f819050919050565b5f819050919050565b5f6200056a620005646200055e8462000538565b62000541565b62000538565b9050919050565b5f819050919050565b62000585836200054a565b6200059d620005948262000571565b848454620004e3565b825550505050565b5f90565b620005b3620005a5565b620005c08184846200057a565b505050565b5b81811015620005e757620005db5f82620005a9565b600181019050620005c6565b5050565b601f82111562000636576200060081620004b6565b6200060b84620004c8565b810160208510156200061b578190505b620006336200062a85620004c8565b830182620005c5565b50505b505050565b5f82821c905092915050565b5f620006585f19846008026200063b565b1980831691505092915050565b5f62000672838362000647565b9150826002028217905092915050565b6200068d826200041e565b67ffffffffffffffff811115620006a957620006a862000428565b5b620006b5825462000482565b620006c2828285620005eb565b5f60209050601f831160018114620006f8575f8415620006e3578287015190505b620006ef858262000665565b8655506200075e565b601f1984166200070886620004b6565b5f5b8281101562000731578489015182556001820191506020850194506020810190506200070a565b868310156200075157848901516200074d601f89168262000647565b8355505b6001600288020188555050505b505050505050565b620007718162000383565b82525050565b5f6020820190506200078c5f83018462000766565b92915050565b5f82825260208201905092915050565b7f496e76616c6964207472656173757279206164647265737300000000000000005f82015250565b5f620007d860188362000792565b9150620007e582620007a2565b602082019050919050565b5f6020820190508181035f8301526200080981620007ca565b9050919050565b608051612e91620008305f395f8181610a360152610c410152612e915ff3fe60806040526004361061014a575f3560e01c8063715018a6116100b5578063c002d23d1161006e578063c002d23d14610456578063c5f956af14610480578063c87b56dd146104aa578063d85d3d27146104e6578063e985e9c514610502578063f2fde38b1461053e5761014a565b8063715018a6146103725780637ffb7dc7146103885780638da5cb5b146103b257806395d89b41146103dc578063a22cb46514610406578063b88d4fde1461042e5761014a565b80633ccfd60b116101075780633ccfd60b1461026a57806342842e0e146102805780636352211e146102a85780636605bfda146102e457806370a082311461030c57806370effb0e146103485761014a565b806301ffc9a71461014e57806306fdde031461018a578063081812fc146101b4578063095ea7b3146101f057806323b872dd1461021857806332cb6b0c14610240575b5f80fd5b348015610159575f80fd5b50610174600480360381019061016f91906121a2565b610566565b60405161018191906121e7565b60405180910390f35b348015610195575f80fd5b5061019e610577565b6040516101ab919061228a565b60405180910390f35b3480156101bf575f80fd5b506101da60048036038101906101d591906122dd565b610606565b6040516101e79190612347565b60405180910390f35b3480156101fb575f80fd5b506102166004803603810190610211919061238a565b610621565b005b348015610223575f80fd5b5061023e600480360381019061023991906123c8565b610637565b005b34801561024b575f80fd5b50610254610736565b6040516102619190612427565b60405180910390f35b348015610275575f80fd5b5061027e61073c565b005b34801561028b575f80fd5b506102a660048036038101906102a191906123c8565b61085e565b005b3480156102b3575f80fd5b506102ce60048036038101906102c991906122dd565b61087d565b6040516102db9190612347565b60405180910390f35b3480156102ef575f80fd5b5061030a60048036038101906103059190612440565b61088e565b005b348015610317575f80fd5b50610332600480360381019061032d9190612440565b61097e565b60405161033f9190612427565b60405180910390f35b348015610353575f80fd5b5061035c610a34565b60405161036991906124c6565b60405180910390f35b34801561037d575f80fd5b50610386610a58565b005b348015610393575f80fd5b5061039c610a6b565b6040516103a99190612427565b60405180910390f35b3480156103bd575f80fd5b506103c6610a79565b6040516103d39190612347565b60405180910390f35b3480156103e7575f80fd5b506103f0610aa1565b6040516103fd919061228a565b60405180910390f35b348015610411575f80fd5b5061042c60048036038101906104279190612509565b610b31565b005b348015610439575f80fd5b50610454600480360381019061044f9190612673565b610b47565b005b348015610461575f80fd5b5061046a610b6c565b6040516104779190612427565b60405180910390f35b34801561048b575f80fd5b50610494610b77565b6040516104a19190612347565b60405180910390f35b3480156104b5575f80fd5b506104d060048036038101906104cb91906122dd565b610b9c565b6040516104dd919061228a565b60405180910390f35b61050060048036038101906104fb9190612791565b610bae565b005b34801561050d575f80fd5b50610528600480360381019061052391906127d8565b610d47565b60405161053591906121e7565b60405180910390f35b348015610549575f80fd5b50610564600480360381019061055f9190612440565b610dd5565b005b5f61057082610e59565b9050919050565b60605f805461058590612843565b80601f01602080910402602001604051908101604052809291908181526020018280546105b190612843565b80156105fc5780601f106105d3576101008083540402835291602001916105fc565b820191905f5260205f20905b8154815290600101906020018083116105df57829003601f168201915b5050505050905090565b5f61061082610eb9565b5061061a82610f3f565b9050919050565b610633828261062e610f78565b610f7f565b5050565b5f73ffffffffffffffffffffffffffffffffffffffff168273ffffffffffffffffffffffffffffffffffffffff16036106a7575f6040517f64a0ae9200000000000000000000000000000000000000000000000000000000815260040161069e9190612347565b60405180910390fd5b5f6106ba83836106b5610f78565b610f91565b90508373ffffffffffffffffffffffffffffffffffffffff168173ffffffffffffffffffffffffffffffffffffffff1614610730578382826040517f64283d7b00000000000000000000000000000000000000000000000000000000815260040161072793929190612873565b60405180910390fd5b50505050565b61079c81565b61074461119c565b61074c611223565b5f4790505f8111610792576040517f08c379a0000000000000000000000000000000000000000000000000000000008152600401610789906128f2565b60405180910390fd5b5f60095f9054906101000a900473ffffffffffffffffffffffffffffffffffffffff1673ffffffffffffffffffffffffffffffffffffffff16826040516107d89061293d565b5f6040518083038185875af1925050503d805f8114610812576040519150601f19603f3d011682016040523d82523d5f602084013e610817565b606091505b5050905080610852576040517f90b8ec1800000000000000000000000000000000000000000000000000000000815260040160405180910390fd5b505061085c611245565b565b61087883838360405180602001604052805f815250610b47565b505050565b5f61088782610eb9565b9050919050565b61089661119c565b5f73ffffffffffffffffffffffffffffffffffffffff168173ffffffffffffffffffffffffffffffffffffffff1603610904576040517f08c379a00000000000000000000000000000000000000000000000000000000081526004016108fb9061299b565b60405180910390fd5b8060095f6101000a81548173ffffffffffffffffffffffffffffffffffffffff021916908373ffffffffffffffffffffffffffffffffffffffff1602179055507f7dae230f18360d76a040c81f050aa14eb9d6dc7901b20fc5d855e2a20fe814d1816040516109739190612347565b60405180910390a150565b5f8073ffffffffffffffffffffffffffffffffffffffff168273ffffffffffffffffffffffffffffffffffffffff16036109ef575f6040517f89c62b640000000000000000000000000000000000000000000000000000000081526004016109e69190612347565b60405180910390fd5b60035f8373ffffffffffffffffffffffffffffffffffffffff1673ffffffffffffffffffffffffffffffffffffffff1681526020019081526020015f20549050919050565b7f000000000000000000000000000000000000000000000000000000000000000081565b610a6061119c565b610a695f61125f565b565b690a968163f0a57b40000081565b5f60075f9054906101000a900473ffffffffffffffffffffffffffffffffffffffff16905090565b606060018054610ab090612843565b80601f0160208091040260200160405190810160405280929190818152602001828054610adc90612843565b8015610b275780601f10610afe57610100808354040283529160200191610b27565b820191905f5260205f20905b815481529060010190602001808311610b0a57829003601f168201915b5050505050905090565b610b43610b3c610f78565b8383611322565b5050565b610b52848484610637565b610b66610b5d610f78565b858585856114fb565b50505050565b66b1a2bc2ec5000081565b60095f9054906101000a900473ffffffffffffffffffffffffffffffffffffffff1681565b6060610ba7826116a7565b9050919050565b610bb6611223565b61079c6008541115610bf4576040517fd05cb60900000000000000000000000000000000000000000000000000000000815260040160405180910390fd5b66b1a2bc2ec500003414610c34576040517f569e8c1100000000000000000000000000000000000000000000000000000000815260040160405180910390fd5b690a968163f0a57b4000007f000000000000000000000000000000000000000000000000000000000000000073ffffffffffffffffffffffffffffffffffffffff166370a08231336040518263ffffffff1660e01b8152600401610c989190612347565b602060405180830381865afa158015610cb3573d5f803e3d5ffd5b505050506040513d601f19601f82011682018060405250810190610cd791906129cd565b11610d0e576040517f584a793800000000000000000000000000000000000000000000000000000000815260040160405180910390fd5b5f60085f815480929190610d2190612a25565b919050559050610d313382611723565b610d3b8183611740565b50610d44611245565b50565b5f60055f8473ffffffffffffffffffffffffffffffffffffffff1673ffffffffffffffffffffffffffffffffffffffff1681526020019081526020015f205f8373ffffffffffffffffffffffffffffffffffffffff1673ffffffffffffffffffffffffffffffffffffffff1681526020019081526020015f205f9054906101000a900460ff16905092915050565b610ddd61119c565b5f73ffffffffffffffffffffffffffffffffffffffff168173ffffffffffffffffffffffffffffffffffffffff1603610e4d575f6040517f1e4fbdf7000000000000000000000000000000000000000000000000000000008152600401610e449190612347565b60405180910390fd5b610e568161125f565b50565b5f634906490660e01b7bffffffffffffffffffffffffffffffffffffffffffffffffffffffff1916827bffffffffffffffffffffffffffffffffffffffffffffffffffffffff19161480610eb25750610eb18261179a565b5b9050919050565b5f80610ec48361187b565b90505f73ffffffffffffffffffffffffffffffffffffffff168173ffffffffffffffffffffffffffffffffffffffff1603610f3657826040517f7e273289000000000000000000000000000000000000000000000000000000008152600401610f2d9190612427565b60405180910390fd5b80915050919050565b5f60045f8381526020019081526020015f205f9054906101000a900473ffffffffffffffffffffffffffffffffffffffff169050919050565b5f33905090565b610f8c83838360016118b4565b505050565b5f80610f9c8461187b565b90505f73ffffffffffffffffffffffffffffffffffffffff168373ffffffffffffffffffffffffffffffffffffffff1614610fdd57610fdc818486611a73565b5b5f73ffffffffffffffffffffffffffffffffffffffff168173ffffffffffffffffffffffffffffffffffffffff16146110685761101c5f855f806118b4565b600160035f8373ffffffffffffffffffffffffffffffffffffffff1673ffffffffffffffffffffffffffffffffffffffff1681526020019081526020015f205f82825403925050819055505b5f73ffffffffffffffffffffffffffffffffffffffff168573ffffffffffffffffffffffffffffffffffffffff16146110e757600160035f8773ffffffffffffffffffffffffffffffffffffffff1673ffffffffffffffffffffffffffffffffffffffff1681526020019081526020015f205f82825401925050819055505b8460025f8681526020019081526020015f205f6101000a81548173ffffffffffffffffffffffffffffffffffffffff021916908373ffffffffffffffffffffffffffffffffffffffff160217905550838573ffffffffffffffffffffffffffffffffffffffff168273ffffffffffffffffffffffffffffffffffffffff167fddf252ad1be2c89b69c2b068fc378daa952ba7f163c4a11628f55a4df523b3ef60405160405180910390a4809150509392505050565b6111a4610f78565b73ffffffffffffffffffffffffffffffffffffffff166111c2610a79565b73ffffffffffffffffffffffffffffffffffffffff1614611221576111e5610f78565b6040517f118cdaa70000000000000000000000000000000000000000000000000000000081526004016112189190612347565b60405180910390fd5b565b61122b611b36565b600261123d611238611b77565b611ba0565b5f0181905550565b6001611257611252611b77565b611ba0565b5f0181905550565b5f60075f9054906101000a900473ffffffffffffffffffffffffffffffffffffffff1690508160075f6101000a81548173ffffffffffffffffffffffffffffffffffffffff021916908373ffffffffffffffffffffffffffffffffffffffff1602179055508173ffffffffffffffffffffffffffffffffffffffff168173ffffffffffffffffffffffffffffffffffffffff167f8be0079c531659141344cd1fd0a4f28419497f9722a3daafe3b4186f6b6457e060405160405180910390a35050565b5f73ffffffffffffffffffffffffffffffffffffffff168373ffffffffffffffffffffffffffffffffffffffff1603611392575f6040517fa9fbf51f0000000000000000000000000000000000000000000000000000000081526004016113899190612347565b60405180910390fd5b5f73ffffffffffffffffffffffffffffffffffffffff168273ffffffffffffffffffffffffffffffffffffffff160361140257816040517f5b08ba180000000000000000000000000000000000000000000000000000000081526004016113f99190612347565b60405180910390fd5b8060055f8573ffffffffffffffffffffffffffffffffffffffff1673ffffffffffffffffffffffffffffffffffffffff1681526020019081526020015f205f8473ffffffffffffffffffffffffffffffffffffffff1673ffffffffffffffffffffffffffffffffffffffff1681526020019081526020015f205f6101000a81548160ff0219169083151502179055508173ffffffffffffffffffffffffffffffffffffffff168373ffffffffffffffffffffffffffffffffffffffff167f17307eab39ab6107e8899845ad3d59bd9653f200f220920489ca2b5937696c31836040516114ee91906121e7565b60405180910390a3505050565b5f8373ffffffffffffffffffffffffffffffffffffffff163b11156116a0578273ffffffffffffffffffffffffffffffffffffffff1663150b7a02868685856040518563ffffffff1660e01b81526004016115599493929190612abe565b6020604051808303815f875af192505050801561159457506040513d601f19601f820116820180604052508101906115919190612b1c565b60015b611615573d805f81146115c2576040519150601f19603f3d011682016040523d82523d5f602084013e6115c7565b606091505b505f81510361160d57836040517f64a0ae920000000000000000000000000000000000000000000000000000000081526004016116049190612347565b60405180910390fd5b805160208201fd5b63150b7a0260e01b7bffffffffffffffffffffffffffffffffffffffffffffffffffffffff1916817bffffffffffffffffffffffffffffffffffffffffffffffffffffffff19161461169e57836040517f64a0ae920000000000000000000000000000000000000000000000000000000081526004016116959190612347565b60405180910390fd5b505b5050505050565b60606116b282610eb9565b505f6116bc611ba9565b90505f6116c884611bbf565b90505f8251036116dc57809250505061171e565b5f815111156117105781816040516020016116f8929190612b81565b6040516020818303038152906040529250505061171e565b61171984611c60565b925050505b919050565b61173c828260405180602001604052805f815250611cc6565b5050565b8060065f8481526020019081526020015f20908161175e9190612d38565b507ff8e1a15aba9398e019f0b49df1a4fde98ee17ae345cb5f6b5e2c27f5033e8ce78260405161178e9190612427565b60405180910390a15050565b5f7f80ac58cd000000000000000000000000000000000000000000000000000000007bffffffffffffffffffffffffffffffffffffffffffffffffffffffff1916827bffffffffffffffffffffffffffffffffffffffffffffffffffffffff1916148061186457507f5b5e139f000000000000000000000000000000000000000000000000000000007bffffffffffffffffffffffffffffffffffffffffffffffffffffffff1916827bffffffffffffffffffffffffffffffffffffffffffffffffffffffff1916145b80611874575061187382611ce9565b5b9050919050565b5f60025f8381526020019081526020015f205f9054906101000a900473ffffffffffffffffffffffffffffffffffffffff169050919050565b80806118ec57505f73ffffffffffffffffffffffffffffffffffffffff168273ffffffffffffffffffffffffffffffffffffffff1614155b15611a1e575f6118fb84610eb9565b90505f73ffffffffffffffffffffffffffffffffffffffff168373ffffffffffffffffffffffffffffffffffffffff161415801561196557508273ffffffffffffffffffffffffffffffffffffffff168173ffffffffffffffffffffffffffffffffffffffff1614155b801561197857506119768184610d47565b155b156119ba57826040517fa9fbf51f0000000000000000000000000000000000000000000000000000000081526004016119b19190612347565b60405180910390fd5b8115611a1c57838573ffffffffffffffffffffffffffffffffffffffff168273ffffffffffffffffffffffffffffffffffffffff167f8c5be1e5ebec7d5bd14f71427d1e84f3dd0314c0f7b2291e5b200ac8c7c3b92560405160405180910390a45b505b8360045f8581526020019081526020015f205f6101000a81548173ffffffffffffffffffffffffffffffffffffffff021916908373ffffffffffffffffffffffffffffffffffffffff16021790555050505050565b611a7e838383611d52565b611b31575f73ffffffffffffffffffffffffffffffffffffffff168373ffffffffffffffffffffffffffffffffffffffff1603611af257806040517f7e273289000000000000000000000000000000000000000000000000000000008152600401611ae99190612427565b60405180910390fd5b81816040517f177e802f000000000000000000000000000000000000000000000000000000008152600401611b28929190612e07565b60405180910390fd5b505050565b611b3e611e12565b15611b75576040517f3ee5aeb500000000000000000000000000000000000000000000000000000000815260040160405180910390fd5b565b5f7f9b779b17422d0df92223018b32b4d1fa46e071723d6817e2486d003becc55f005f1b905090565b5f819050919050565b606060405180602001604052805f815250905090565b606060065f8381526020019081526020015f208054611bdd90612843565b80601f0160208091040260200160405190810160405280929190818152602001828054611c0990612843565b8015611c545780601f10611c2b57610100808354040283529160200191611c54565b820191905f5260205f20905b815481529060010190602001808311611c3757829003601f168201915b50505050509050919050565b6060611c6b82610eb9565b505f611c75611ba9565b90505f815111611c935760405180602001604052805f815250611cbe565b80611c9d84611e2e565b604051602001611cae929190612b81565b6040516020818303038152906040525b915050919050565b611cd08383611ef8565b611ce4611cdb610f78565b5f8585856114fb565b505050565b5f7f01ffc9a7000000000000000000000000000000000000000000000000000000007bffffffffffffffffffffffffffffffffffffffffffffffffffffffff1916827bffffffffffffffffffffffffffffffffffffffffffffffffffffffff1916149050919050565b5f8073ffffffffffffffffffffffffffffffffffffffff168373ffffffffffffffffffffffffffffffffffffffff1614158015611e0957508273ffffffffffffffffffffffffffffffffffffffff168473ffffffffffffffffffffffffffffffffffffffff161480611dca5750611dc98484610d47565b5b80611e0857508273ffffffffffffffffffffffffffffffffffffffff16611df083610f3f565b73ffffffffffffffffffffffffffffffffffffffff16145b5b90509392505050565b5f6002611e25611e20611b77565b611ba0565b5f015414905090565b60605f6001611e3c84611feb565b0190505f8167ffffffffffffffff811115611e5a57611e5961254f565b5b6040519080825280601f01601f191660200182016040528015611e8c5781602001600182028036833780820191505090505b5090505f82602083010190505b600115611eed578080600190039150507f3031323334353637383961626364656600000000000000000000000000000000600a86061a8153600a8581611ee257611ee1612e2e565b5b0494505f8503611e99575b819350505050919050565b5f73ffffffffffffffffffffffffffffffffffffffff168273ffffffffffffffffffffffffffffffffffffffff1603611f68575f6040517f64a0ae92000000000000000000000000000000000000000000000000000000008152600401611f5f9190612347565b60405180910390fd5b5f611f7483835f610f91565b90505f73ffffffffffffffffffffffffffffffffffffffff168173ffffffffffffffffffffffffffffffffffffffff1614611fe6575f6040517f73c6ac6e000000000000000000000000000000000000000000000000000000008152600401611fdd9190612347565b60405180910390fd5b505050565b5f805f90507a184f03e93ff9f4daa797ed6e38ed64bf6a1f0100000000000000008310612047577a184f03e93ff9f4daa797ed6e38ed64bf6a1f010000000000000000838161203d5761203c612e2e565b5b0492506040810190505b6d04ee2d6d415b85acef81000000008310612084576d04ee2d6d415b85acef8100000000838161207a57612079612e2e565b5b0492506020810190505b662386f26fc1000083106120b357662386f26fc1000083816120a9576120a8612e2e565b5b0492506010810190505b6305f5e10083106120dc576305f5e10083816120d2576120d1612e2e565b5b0492506008810190505b61271083106121015761271083816120f7576120f6612e2e565b5b0492506004810190505b60648310612124576064838161211a57612119612e2e565b5b0492506002810190505b600a8310612133576001810190505b80915050919050565b5f604051905090565b5f80fd5b5f80fd5b5f7fffffffff0000000000000000000000000000000000000000000000000000000082169050919050565b6121818161214d565b811461218b575f80fd5b50565b5f8135905061219c81612178565b92915050565b5f602082840312156121b7576121b6612145565b5b5f6121c48482850161218e565b91505092915050565b5f8115159050919050565b6121e1816121cd565b82525050565b5f6020820190506121fa5f8301846121d8565b92915050565b5f81519050919050565b5f82825260208201905092915050565b5f5b8381101561223757808201518184015260208101905061221c565b5f8484015250505050565b5f601f19601f8301169050919050565b5f61225c82612200565b612266818561220a565b935061227681856020860161221a565b61227f81612242565b840191505092915050565b5f6020820190508181035f8301526122a28184612252565b905092915050565b5f819050919050565b6122bc816122aa565b81146122c6575f80fd5b50565b5f813590506122d7816122b3565b92915050565b5f602082840312156122f2576122f1612145565b5b5f6122ff848285016122c9565b91505092915050565b5f73ffffffffffffffffffffffffffffffffffffffff82169050919050565b5f61233182612308565b9050919050565b61234181612327565b82525050565b5f60208201905061235a5f830184612338565b92915050565b61236981612327565b8114612373575f80fd5b50565b5f8135905061238481612360565b92915050565b5f80604083850312156123a05761239f612145565b5b5f6123ad85828601612376565b92505060206123be858286016122c9565b9150509250929050565b5f805f606084860312156123df576123de612145565b5b5f6123ec86828701612376565b93505060206123fd86828701612376565b925050604061240e868287016122c9565b9150509250925092565b612421816122aa565b82525050565b5f60208201905061243a5f830184612418565b92915050565b5f6020828403121561245557612454612145565b5b5f61246284828501612376565b91505092915050565b5f819050919050565b5f61248e61248961248484612308565b61246b565b612308565b9050919050565b5f61249f82612474565b9050919050565b5f6124b082612495565b9050919050565b6124c0816124a6565b82525050565b5f6020820190506124d95f8301846124b7565b92915050565b6124e8816121cd565b81146124f2575f80fd5b50565b5f81359050612503816124df565b92915050565b5f806040838503121561251f5761251e612145565b5b5f61252c85828601612376565b925050602061253d858286016124f5565b9150509250929050565b5f80fd5b5f80fd5b7f4e487b71000000000000000000000000000000000000000000000000000000005f52604160045260245ffd5b61258582612242565b810181811067ffffffffffffffff821117156125a4576125a361254f565b5b80604052505050565b5f6125b661213c565b90506125c2828261257c565b919050565b5f67ffffffffffffffff8211156125e1576125e061254f565b5b6125ea82612242565b9050602081019050919050565b828183375f83830152505050565b5f612617612612846125c7565b6125ad565b9050828152602081018484840111156126335761263261254b565b5b61263e8482856125f7565b509392505050565b5f82601f83011261265a57612659612547565b5b813561266a848260208601612605565b91505092915050565b5f805f806080858703121561268b5761268a612145565b5b5f61269887828801612376565b94505060206126a987828801612376565b93505060406126ba878288016122c9565b925050606085013567ffffffffffffffff8111156126db576126da612149565b5b6126e787828801612646565b91505092959194509250565b5f67ffffffffffffffff82111561270d5761270c61254f565b5b61271682612242565b9050602081019050919050565b5f612735612730846126f3565b6125ad565b9050828152602081018484840111156127515761275061254b565b5b61275c8482856125f7565b509392505050565b5f82601f83011261277857612777612547565b5b8135612788848260208601612723565b91505092915050565b5f602082840312156127a6576127a5612145565b5b5f82013567ffffffffffffffff8111156127c3576127c2612149565b5b6127cf84828501612764565b91505092915050565b5f80604083850312156127ee576127ed612145565b5b5f6127fb85828601612376565b925050602061280c85828601612376565b9150509250929050565b7f4e487b71000000000000000000000000000000000000000000000000000000005f52602260045260245ffd5b5f600282049050600182168061285a57607f821691505b60208210810361286d5761286c612816565b5b50919050565b5f6060820190506128865f830186612338565b6128936020830185612418565b6128a06040830184612338565b949350505050565b7f4e6f2066756e647320746f2077697468647261770000000000000000000000005f82015250565b5f6128dc60148361220a565b91506128e7826128a8565b602082019050919050565b5f6020820190508181035f830152612909816128d0565b9050919050565b5f81905092915050565b50565b5f6129285f83612910565b91506129338261291a565b5f82019050919050565b5f6129478261291d565b9150819050919050565b7f496e76616c6964207472656173757279206164647265737300000000000000005f82015250565b5f61298560188361220a565b915061299082612951565b602082019050919050565b5f6020820190508181035f8301526129b281612979565b9050919050565b5f815190506129c7816122b3565b92915050565b5f602082840312156129e2576129e1612145565b5b5f6129ef848285016129b9565b91505092915050565b7f4e487b71000000000000000000000000000000000000000000000000000000005f52601160045260245ffd5b5f612a2f826122aa565b91507fffffffffffffffffffffffffffffffffffffffffffffffffffffffffffffffff8203612a6157612a606129f8565b5b600182019050919050565b5f81519050919050565b5f82825260208201905092915050565b5f612a9082612a6c565b612a9a8185612a76565b9350612aaa81856020860161221a565b612ab381612242565b840191505092915050565b5f608082019050612ad15f830187612338565b612ade6020830186612338565b612aeb6040830185612418565b8181036060830152612afd8184612a86565b905095945050505050565b5f81519050612b1681612178565b92915050565b5f60208284031215612b3157612b30612145565b5b5f612b3e84828501612b08565b91505092915050565b5f81905092915050565b5f612b5b82612200565b612b658185612b47565b9350612b7581856020860161221a565b80840191505092915050565b5f612b8c8285612b51565b9150612b988284612b51565b91508190509392505050565b5f819050815f5260205f209050919050565b5f6020601f8301049050919050565b5f82821b905092915050565b5f60088302612c007fffffffffffffffffffffffffffffffffffffffffffffffffffffffffffffffff82612bc5565b612c0a8683612bc5565b95508019841693508086168417925050509392505050565b5f612c3c612c37612c32846122aa565b61246b565b6122aa565b9050919050565b5f819050919050565b612c5583612c22565b612c69612c6182612c43565b848454612bd1565b825550505050565b5f90565b612c7d612c71565b612c88818484612c4c565b505050565b5b81811015612cab57612ca05f82612c75565b600181019050612c8e565b5050565b601f821115612cf057612cc181612ba4565b612cca84612bb6565b81016020851015612cd9578190505b612ced612ce585612bb6565b830182612c8d565b50505b505050565b5f82821c905092915050565b5f612d105f1984600802612cf5565b1980831691505092915050565b5f612d288383612d01565b9150826002028217905092915050565b612d4182612200565b67ffffffffffffffff811115612d5a57612d5961254f565b5b612d648254612843565b612d6f828285612caf565b5f60209050601f831160018114612da0575f8415612d8e578287015190505b612d988582612d1d565b865550612dff565b601f198416612dae86612ba4565b5f5b82811015612dd557848901518255600182019150602085019450602081019050612db0565b86831015612df25784890151612dee601f891682612d01565b8355505b6001600288020188555050505b505050505050565b5f604082019050612e1a5f830185612338565b612e276020830184612418565b9392505050565b7f4e487b71000000000000000000000000000000000000000000000000000000005f52601260045260245ffdfea2646970667358221220c71cd8ec3c3a3f2c2f58dbb46fc44fca4b1edb462fb6509fb0ade124fb150b1d64736f6c63430008180033",
  "linkReferences": {},
  "deployedLinkReferences": {}
}