{
  "_format": "hh-sol-artifact-1",
  "contractName": "GAZAINToken",
  "sourceName": "contracts/GAZAINToken.sol",
  "abi": [
    {
      "inputs": [
        {
          "internalType": "address",
          "name": "initialOwner",
          "type": "address"
        },
        {
          "internalType": "address",
          "name": "_treasuryAddress",
          "type": "address"
        }
      ],
      "stateMutability": "nonpayable",
      "type": "constructor"
    },
    {
      "inputs": [
        {
          "internalType": "address",
          "name": "spender",
          "type": "address"
        },
        {
          "internalType": "uint256",
          "name": "allowance",
          "type": "uint256"
        },
        {
          "internalType": "uint256",
          "name": "needed",
          "type": "uint256"
        }
      ],
      "name": "ERC20InsufficientAllowance",
      "type": "error"
    },
    {
      "inputs": [
        {
          "internalType": "address",
          "name": "sender",
          "type": "address"
        },
        {
          "internalType": "uint256",
          "name": "balance",
          "type": "uint256"
        },
        {
          "internalType": "uint256",
          "name": "needed",
          "type": "uint256"
        }
      ],
      "name": "ERC20InsufficientBalance",
      "type": "error"
    },
    {
      "inputs": [
        {
          "internalType": "address",
          "name": "approver",
          "type": "address"
        }
      ],
      "name": "ERC20InvalidApprover",
      "type": "error"
    },
    {
      "inputs": [
        {
          "internalType": "address",
          "name": "receiver",
          "type": "address"
        }
      ],
      "name": "ERC20InvalidReceiver",
      "type": "error"
    },
    {
      "inputs": [
        {
          "internalType": "address",
          "name": "sender",
          "type": "address"
        }
      ],
      "name": "ERC20InvalidSender",
      "type": "error"
    },
    {
      "inputs": [
        {
          "internalType": "address",
          "name": "spender",
          "type": "address"
        }
      ],
      "name": "ERC20InvalidSpender",
      "type": "error"
    },
    {
      "inputs": [
        {
          "internalType": "address",
          "name": "owner",
          "type": "address"
        }
      ],
      "name": "OwnableInvalidOwner",
      "type": "error"
    },
    {
      "inputs": [
        {
          "internalType": "address",
          "name": "account",
          "type": "address"
        }
      ],
      "name": "OwnableUnauthorizedAccount",
      "type": "error"
    },
    {
      "anonymous": false,
      "inputs": [
        {
          "indexed": true,
          "internalType": "address",
          "name": "owner",
          "type": "address"
        },
        {
          "indexed": true,
          "internalType": "address",
          "name": "spender",
          "type": "address"
        },
        {
          "indexed": false,
          "internalType": "uint256",
          "name": "value",
          "type": "uint256"
        }
      ],
      "name": "Approval",
      "type": "event"
    },
    {
      "anonymous": false,
      "inputs": [
        {
          "indexed": false,
          "internalType": "address",
          "name": "account",
          "type": "address"
        },
        {
          "indexed": false,
          "internalType": "bool",
          "name": "isExcluded",
          "type": "bool"
        }
      ],
      "name": "ExcludedFromFee",
      "type": "event"
    },
    {
      "anonymous": false,
      "inputs": [
        {
          "indexed": true,
          "internalType": "address",
          "name": "previousOwner",
          "type": "address"
        },
        {
          "indexed": true,
          "internalType": "address",
          "name": "newOwner",
          "type": "address"
        }
      ],
      "name": "OwnershipTransferred",
      "type": "event"
    },
    {
      "anonymous": false,
      "inputs": [
        {
          "indexed": true,
          "internalType": "address",
          "name": "from",
          "type": "address"
        },
        {
          "indexed": true,
          "internalType": "address",
          "name": "to",
          "type": "address"
        },
        {
          "indexed": false,
          "internalType": "uint256",
          "name": "value",
          "type": "uint256"
        }
      ],
      "name": "Transfer",
      "type": "event"
    },
    {
      "anonymous": false,
      "inputs": [
        {
          "indexed": false,
          "internalType": "address",
          "name": "newTreasury",
          "type": "address"
        }
      ],
      "name": "TreasuryUpdated",
      "type": "event"
    },
    {
      "inputs": [],
      "name": "FEE_PERCENTAGE",
      "outputs": [
        {
          "internalType": "uint256",
          "name": "",
          "type": "uint256"
        }
      ],
      "stateMutability": "view",
      "type": "function"
    },
    {
      "inputs": [],
      "name": "MAX_SUPPLY",
      "outputs": [
        {
          "internalType": "uint256",
          "name": "",
          "type": "uint256"
        }
      ],
      "stateMutability": "view",
      "type": "function"
    },
    {
      "inputs": [
        {
          "internalType": "address",
          "name": "owner",
          "type": "address"
        },
        {
          "internalType": "address",
          "name": "spender",
          "type": "address"
        }
      ],
      "name": "allowance",
      "outputs": [
        {
          "internalType": "uint256",
          "name": "",
          "type": "uint256"
        }
      ],
      "stateMutability": "view",
      "type": "function"
    },
    {
      "inputs": [
        {
          "internalType": "address",
          "name": "spender",
          "type": "address"
        },
        {
          "internalType": "uint256",
          "name": "value",
          "type": "uint256"
        }
      ],
      "name": "approve",
      "outputs": [
        {
          "internalType": "bool",
          "name": "",
          "type": "bool"
        }
      ],
      "stateMutability": "nonpayable",
      "type": "function"
    },
    {
      "inputs": [
        {
          "internalType": "address",
          "name": "account",
          "type": "address"
        }
      ],
      "name": "balanceOf",
      "outputs": [
        {
          "internalType": "uint256",
          "name": "",
          "type": "uint256"
        }
      ],
      "stateMutability": "view",
      "type": "function"
    },
    {
      "inputs": [],
      "name": "decimals",
      "outputs": [
        {
          "internalType": "uint8",
          "name": "",
          "type": "uint8"
        }
      ],
      "stateMutability": "view",
      "type": "function"
    },
    {
      "inputs": [
        {
          "internalType": "address",
          "name": "account",
          "type": "address"
        },
        {
          "internalType": "bool",
          "name": "excluded",
          "type": "bool"
        }
      ],
      "name": "excludeFromFee",
      "outputs": [],
      "stateMutability": "nonpayable",
      "type": "function"
    },
    {
      "inputs": [
        {
          "internalType": "address",
          "name": "account",
          "type": "address"
        }
      ],
      "name": "isExcludedFromFee",
      "outputs": [
        {
          "internalType": "bool",
          "name": "",
          "type": "bool"
        }
      ],
      "stateMutability": "view",
      "type": "function"
    },
    {
      "inputs": [],
      "name": "name",
      "outputs": [
        {
          "internalType": "string",
          "name": "",
          "type": "string"
        }
      ],
      "stateMutability": "view",
      "type": "function"
    },
    {
      "inputs": [],
      "name": "owner",
      "outputs": [
        {
          "internalType": "address",
          "name": "",
          "type": "address"
        }
      ],
      "stateMutability": "view",
      "type": "function"
    },
    {
      "inputs": [],
      "name": "renounceOwnership",
      "outputs": [],
      "stateMutability": "nonpayable",
      "type": "function"
    },
    {
      "inputs": [
        {
          "internalType": "address",
          "name": "_treasuryAddress",
          "type": "address"
        }
      ],
      "name": "setTreasuryAddress",
      "outputs": [],
      "stateMutability": "nonpayable",
      "type": "function"
    },
    {
      "inputs": [],
      "name": "symbol",
      "outputs": [
        {
          "internalType": "string",
          "name": "",
          "type": "string"
        }
      ],
      "stateMutability": "view",
      "type": "function"
    },
    {
      "inputs": [],
      "name": "totalSupply",
      "outputs": [
        {
          "internalType": "uint256",
          "name": "",
          "type": "uint256"
        }
      ],
      "stateMutability": "view",
      "type": "function"
    },
    {
      "inputs": [
        {
          "internalType": "address",
          "name": "to",
          "type": "address"
        },
        {
          "internalType": "uint256",
          "name": "value",
          "type": "uint256"
        }
      ],
      "name": "transfer",
      "outputs": [
        {
          "internalType": "bool",
          "name": "",
          "type": "bool"
        }
      ],
      "stateMutability": "nonpayable",
      "type": "function"
    },
    {
      "inputs": [
        {
          "internalType": "address",
          "name": "from",
          "type": "address"
        },
        {
          "internalType": "address",
          "name": "to",
          "type": "address"
        },
        {
          "internalType": "uint256",
          "name": "value",
          "type": "uint256"
        }
      ],
      "name": "transferFrom",
      "outputs": [
        {
          "internalType": "bool",
          "name": "",
          "type": "bool"
        }
      ],
      "stateMutability": "nonpayable",
      "type": "function"
    },
    {
      "inputs": [
        {
          "internalType": "address",
          "name": "newOwner",
          "type": "address"
        }
      ],
      "name": "transferOwnership",
      "outputs": [],
      "stateMutability": "nonpayable",
      "type": "function"
    },
    {
      "inputs": [],
      "name": "treasuryAddress",
      "outputs": [
        {
          "internalType": "address",
          "name": "",
          "type": "address"
        }
      ],
      "stateMutability": "view",
      "type": "function"
    }
  ],
  "bytecode": "0x608060405234801562000010575f80fd5b50604051620025d8380380620025d88339818101604052810190620000369190620008cd565b816040518060400160405280600f81526020017f47617a6120496e697469617469766500000000000000000000000000000000008152506040518060400160405280600681526020017f47415a41494e00000000000000000000000000000000000000000000000000008152508160039081620000b4919062000b76565b508060049081620000c6919062000b76565b5050505f73ffffffffffffffffffffffffffffffffffffffff168173ffffffffffffffffffffffffffffffffffffffff16036200013c575f6040517f1e4fbdf700000000000000000000000000000000000000000000000000000000815260040162000133919062000c6b565b60405180910390fd5b6200014d816200032460201b60201c565b505f73ffffffffffffffffffffffffffffffffffffffff168173ffffffffffffffffffffffffffffffffffffffff1603620001bf576040517f08c379a0000000000000000000000000000000000000000000000000000000008152600401620001b69062000ce4565b60405180910390fd5b8060065f6101000a81548173ffffffffffffffffffffffffffffffffffffffff021916908373ffffffffffffffffffffffffffffffffffffffff160217905550600160075f8473ffffffffffffffffffffffffffffffffffffffff1673ffffffffffffffffffffffffffffffffffffffff1681526020019081526020015f205f6101000a81548160ff021916908315150217905550600160075f8373ffffffffffffffffffffffffffffffffffffffff1673ffffffffffffffffffffffffffffffffffffffff1681526020019081526020015f205f6101000a81548160ff021916908315150217905550600160075f3073ffffffffffffffffffffffffffffffffffffffff1673ffffffffffffffffffffffffffffffffffffffff1681526020019081526020015f205f6101000a81548160ff0219169083151502179055506200031c826b033b2e3c9fd0803ce8000000620003e760201b60201c565b505062000eba565b5f60055f9054906101000a900473ffffffffffffffffffffffffffffffffffffffff1690508160055f6101000a81548173ffffffffffffffffffffffffffffffffffffffff021916908373ffffffffffffffffffffffffffffffffffffffff1602179055508173ffffffffffffffffffffffffffffffffffffffff168173ffffffffffffffffffffffffffffffffffffffff167f8be0079c531659141344cd1fd0a4f28419497f9722a3daafe3b4186f6b6457e060405160405180910390a35050565b5f73ffffffffffffffffffffffffffffffffffffffff168273ffffffffffffffffffffffffffffffffffffffff16036200045a575f6040517fec442f0500000000000000000000000000000000000000000000000000000000815260040162000451919062000c6b565b60405180910390fd5b6200046d5f83836200047160201b60201c565b5050565b5f73ffffffffffffffffffffffffffffffffffffffff168373ffffffffffffffffffffffffffffffffffffffff161480620004d757505f73ffffffffffffffffffffffffffffffffffffffff168273ffffffffffffffffffffffffffffffffffffffff16145b15620004f657620004f08383836200064460201b60201c565b6200063f565b5f60075f8573ffffffffffffffffffffffffffffffffffffffff1673ffffffffffffffffffffffffffffffffffffffff1681526020019081526020015f205f9054906101000a900460ff1615801562000596575060075f8473ffffffffffffffffffffffffffffffffffffffff1673ffffffffffffffffffffffffffffffffffffffff1681526020019081526020015f205f9054906101000a900460ff16155b9050801562000629575f6064600384620005b1919062000d31565b620005bd919062000da8565b90505f8184620005ce919062000ddf565b90505f8211156200060e576200060d8660065f9054906101000a900473ffffffffffffffffffffffffffffffffffffffff16846200064460201b60201c565b5b620006218686836200064460201b60201c565b50506200063d565b6200063c8484846200064460201b60201c565b5b505b505050565b5f73ffffffffffffffffffffffffffffffffffffffff168373ffffffffffffffffffffffffffffffffffffffff160362000698578060025f8282546200068b919062000e19565b9250508190555062000769565b5f805f8573ffffffffffffffffffffffffffffffffffffffff1673ffffffffffffffffffffffffffffffffffffffff1681526020019081526020015f205490508181101562000724578381836040517fe450d38c0000000000000000000000000000000000000000000000000000000081526004016200071b9392919062000e64565b60405180910390fd5b8181035f808673ffffffffffffffffffffffffffffffffffffffff1673ffffffffffffffffffffffffffffffffffffffff1681526020019081526020015f2081905550505b5f73ffffffffffffffffffffffffffffffffffffffff168273ffffffffffffffffffffffffffffffffffffffff1603620007b2578060025f8282540392505081905550620007fc565b805f808473ffffffffffffffffffffffffffffffffffffffff1673ffffffffffffffffffffffffffffffffffffffff1681526020019081526020015f205f82825401925050819055505b8173ffffffffffffffffffffffffffffffffffffffff168373ffffffffffffffffffffffffffffffffffffffff167fddf252ad1be2c89b69c2b068fc378daa952ba7f163c4a11628f55a4df523b3ef836040516200085b919062000e9f565b60405180910390a3505050565b5f80fd5b5f73ffffffffffffffffffffffffffffffffffffffff82169050919050565b5f62000897826200086c565b9050919050565b620008a9816200088b565b8114620008b4575f80fd5b50565b5f81519050620008c7816200089e565b92915050565b5f8060408385031215620008e657620008e562000868565b5b5f620008f585828601620008b7565b92505060206200090885828601620008b7565b9150509250929050565b5f81519050919050565b7f4e487b71000000000000000000000000000000000000000000000000000000005f52604160045260245ffd5b7f4e487b71000000000000000000000000000000000000000000000000000000005f52602260045260245ffd5b5f60028204905060018216806200098e57607f821691505b602082108103620009a457620009a362000949565b5b50919050565b5f819050815f5260205f209050919050565b5f6020601f8301049050919050565b5f82821b905092915050565b5f6008830262000a087fffffffffffffffffffffffffffffffffffffffffffffffffffffffffffffffff82620009cb565b62000a148683620009cb565b95508019841693508086168417925050509392505050565b5f819050919050565b5f819050919050565b5f62000a5e62000a5862000a528462000a2c565b62000a35565b62000a2c565b9050919050565b5f819050919050565b62000a798362000a3e565b62000a9162000a888262000a65565b848454620009d7565b825550505050565b5f90565b62000aa762000a99565b62000ab481848462000a6e565b505050565b5b8181101562000adb5762000acf5f8262000a9d565b60018101905062000aba565b5050565b601f82111562000b2a5762000af481620009aa565b62000aff84620009bc565b8101602085101562000b0f578190505b62000b2762000b1e85620009bc565b83018262000ab9565b50505b505050565b5f82821c905092915050565b5f62000b4c5f198460080262000b2f565b1980831691505092915050565b5f62000b66838362000b3b565b9150826002028217905092915050565b62000b818262000912565b67ffffffffffffffff81111562000b9d5762000b9c6200091c565b5b62000ba9825462000976565b62000bb682828562000adf565b5f60209050601f83116001811462000bec575f841562000bd7578287015190505b62000be3858262000b59565b86555062000c52565b601f19841662000bfc86620009aa565b5f5b8281101562000c255784890151825560018201915060208501945060208101905062000bfe565b8683101562000c45578489015162000c41601f89168262000b3b565b8355505b6001600288020188555050505b505050505050565b62000c65816200088b565b82525050565b5f60208201905062000c805f83018462000c5a565b92915050565b5f82825260208201905092915050565b7f496e76616c6964207472656173757279206164647265737300000000000000005f82015250565b5f62000ccc60188362000c86565b915062000cd98262000c96565b602082019050919050565b5f6020820190508181035f83015262000cfd8162000cbe565b9050919050565b7f4e487b71000000000000000000000000000000000000000000000000000000005f52601160045260245ffd5b5f62000d3d8262000a2c565b915062000d4a8362000a2c565b925082820262000d5a8162000a2c565b9150828204841483151762000d745762000d7362000d04565b5b5092915050565b7f4e487b71000000000000000000000000000000000000000000000000000000005f52601260045260245ffd5b5f62000db48262000a2c565b915062000dc18362000a2c565b92508262000dd45762000dd362000d7b565b5b828204905092915050565b5f62000deb8262000a2c565b915062000df88362000a2c565b925082820390508181111562000e135762000e1262000d04565b5b92915050565b5f62000e258262000a2c565b915062000e328362000a2c565b925082820190508082111562000e4d5762000e4c62000d04565b5b92915050565b62000e5e8162000a2c565b82525050565b5f60608201905062000e795f83018662000c5a565b62000e88602083018562000e53565b62000e97604083018462000e53565b949350505050565b5f60208201905062000eb45f83018462000e53565b92915050565b6117108062000ec85f395ff3fe608060405234801561000f575f80fd5b5060043610610113575f3560e01c806370a08231116100a0578063a9059cbb1161006f578063a9059cbb146102cf578063c5f956af146102ff578063dd62ed3e1461031d578063df8408fe1461034d578063f2fde38b1461036957610113565b806370a0823114610259578063715018a6146102895780638da5cb5b1461029357806395d89b41146102b157610113565b806323b872dd116100e757806323b872dd146101a1578063313ce567146101d157806332cb6b0c146101ef5780635342acb41461020d5780636605bfda1461023d57610113565b80620b46f81461011757806306fdde0314610135578063095ea7b31461015357806318160ddd14610183575b5f80fd5b61011f610385565b60405161012c919061114f565b60405180910390f35b61013d61038a565b60405161014a91906111f2565b60405180910390f35b61016d6004803603810190610168919061129a565b61041a565b60405161017a91906112f2565b60405180910390f35b61018b61043c565b604051610198919061114f565b60405180910390f35b6101bb60048036038101906101b6919061130b565b610445565b6040516101c891906112f2565b60405180910390f35b6101d9610473565b6040516101e69190611376565b60405180910390f35b6101f761047b565b604051610204919061114f565b60405180910390f35b6102276004803603810190610222919061138f565b61048b565b60405161023491906112f2565b60405180910390f35b6102576004803603810190610252919061138f565b6104dd565b005b610273600480360381019061026e919061138f565b6105cd565b604051610280919061114f565b60405180910390f35b610291610612565b005b61029b610625565b6040516102a891906113c9565b60405180910390f35b6102b961064d565b6040516102c691906111f2565b60405180910390f35b6102e960048036038101906102e4919061129a565b6106dd565b6040516102f691906112f2565b60405180910390f35b6103076106ff565b60405161031491906113c9565b60405180910390f35b610337600480360381019061033291906113e2565b610724565b604051610344919061114f565b60405180910390f35b6103676004803603810190610362919061144a565b6107a6565b005b610383600480360381019061037e919061138f565b61083f565b005b600381565b606060038054610399906114b5565b80601f01602080910402602001604051908101604052809291908181526020018280546103c5906114b5565b80156104105780601f106103e757610100808354040283529160200191610410565b820191905f5260205f20905b8154815290600101906020018083116103f357829003601f168201915b5050505050905090565b5f806104246108c3565b90506104318185856108ca565b600191505092915050565b5f600254905090565b5f8061044f6108c3565b905061045c8582856108dc565b61046785858561096f565b60019150509392505050565b5f6012905090565b6b033b2e3c9fd0803ce800000081565b5f60075f8373ffffffffffffffffffffffffffffffffffffffff1673ffffffffffffffffffffffffffffffffffffffff1681526020019081526020015f205f9054906101000a900460ff169050919050565b6104e5610a5f565b5f73ffffffffffffffffffffffffffffffffffffffff168173ffffffffffffffffffffffffffffffffffffffff1603610553576040517f08c379a000000000000000000000000000000000000000000000000000000000815260040161054a9061152f565b60405180910390fd5b8060065f6101000a81548173ffffffffffffffffffffffffffffffffffffffff021916908373ffffffffffffffffffffffffffffffffffffffff1602179055507f7dae230f18360d76a040c81f050aa14eb9d6dc7901b20fc5d855e2a20fe814d1816040516105c291906113c9565b60405180910390a150565b5f805f8373ffffffffffffffffffffffffffffffffffffffff1673ffffffffffffffffffffffffffffffffffffffff1681526020019081526020015f20549050919050565b61061a610a5f565b6106235f610ae6565b565b5f60055f9054906101000a900473ffffffffffffffffffffffffffffffffffffffff16905090565b60606004805461065c906114b5565b80601f0160208091040260200160405190810160405280929190818152602001828054610688906114b5565b80156106d35780601f106106aa576101008083540402835291602001916106d3565b820191905f5260205f20905b8154815290600101906020018083116106b657829003601f168201915b5050505050905090565b5f806106e76108c3565b90506106f481858561096f565b600191505092915050565b60065f9054906101000a900473ffffffffffffffffffffffffffffffffffffffff1681565b5f60015f8473ffffffffffffffffffffffffffffffffffffffff1673ffffffffffffffffffffffffffffffffffffffff1681526020019081526020015f205f8373ffffffffffffffffffffffffffffffffffffffff1673ffffffffffffffffffffffffffffffffffffffff1681526020019081526020015f2054905092915050565b6107ae610a5f565b8060075f8473ffffffffffffffffffffffffffffffffffffffff1673ffffffffffffffffffffffffffffffffffffffff1681526020019081526020015f205f6101000a81548160ff0219169083151502179055507f2d43abd87b27cee7b0aa8c6f7e0b4a3247b683262a83cbc2318b0df398a49aa9828260405161083392919061154d565b60405180910390a15050565b610847610a5f565b5f73ffffffffffffffffffffffffffffffffffffffff168173ffffffffffffffffffffffffffffffffffffffff16036108b7575f6040517f1e4fbdf70000000000000000000000000000000000000000000000000000000081526004016108ae91906113c9565b60405180910390fd5b6108c081610ae6565b50565b5f33905090565b6108d78383836001610ba9565b505050565b5f6108e78484610724565b90507fffffffffffffffffffffffffffffffffffffffffffffffffffffffffffffffff811015610969578181101561095a578281836040517ffb8f41b200000000000000000000000000000000000000000000000000000000815260040161095193929190611574565b60405180910390fd5b61096884848484035f610ba9565b5b50505050565b5f73ffffffffffffffffffffffffffffffffffffffff168373ffffffffffffffffffffffffffffffffffffffff16036109df575f6040517f96c6fd1e0000000000000000000000000000000000000000000000000000000081526004016109d691906113c9565b60405180910390fd5b5f73ffffffffffffffffffffffffffffffffffffffff168273ffffffffffffffffffffffffffffffffffffffff1603610a4f575f6040517fec442f05000000000000000000000000000000000000000000000000000000008152600401610a4691906113c9565b60405180910390fd5b610a5a838383610d78565b505050565b610a676108c3565b73ffffffffffffffffffffffffffffffffffffffff16610a85610625565b73ffffffffffffffffffffffffffffffffffffffff1614610ae457610aa86108c3565b6040517f118cdaa7000000000000000000000000000000000000000000000000000000008152600401610adb91906113c9565b60405180910390fd5b565b5f60055f9054906101000a900473ffffffffffffffffffffffffffffffffffffffff1690508160055f6101000a81548173ffffffffffffffffffffffffffffffffffffffff021916908373ffffffffffffffffffffffffffffffffffffffff1602179055508173ffffffffffffffffffffffffffffffffffffffff168173ffffffffffffffffffffffffffffffffffffffff167f8be0079c531659141344cd1fd0a4f28419497f9722a3daafe3b4186f6b6457e060405160405180910390a35050565b5f73ffffffffffffffffffffffffffffffffffffffff168473ffffffffffffffffffffffffffffffffffffffff1603610c19575f6040517fe602df05000000000000000000000000000000000000000000000000000000008152600401610c1091906113c9565b60405180910390fd5b5f73ffffffffffffffffffffffffffffffffffffffff168373ffffffffffffffffffffffffffffffffffffffff1603610c89575f6040517f94280d62000000000000000000000000000000000000000000000000000000008152600401610c8091906113c9565b60405180910390fd5b8160015f8673ffffffffffffffffffffffffffffffffffffffff1673ffffffffffffffffffffffffffffffffffffffff1681526020019081526020015f205f8573ffffffffffffffffffffffffffffffffffffffff1673ffffffffffffffffffffffffffffffffffffffff1681526020019081526020015f20819055508015610d72578273ffffffffffffffffffffffffffffffffffffffff168473ffffffffffffffffffffffffffffffffffffffff167f8c5be1e5ebec7d5bd14f71427d1e84f3dd0314c0f7b2291e5b200ac8c7c3b92584604051610d69919061114f565b60405180910390a35b50505050565b5f73ffffffffffffffffffffffffffffffffffffffff168373ffffffffffffffffffffffffffffffffffffffff161480610ddd57505f73ffffffffffffffffffffffffffffffffffffffff168273ffffffffffffffffffffffffffffffffffffffff16145b15610df257610ded838383610f1e565b610f19565b5f60075f8573ffffffffffffffffffffffffffffffffffffffff1673ffffffffffffffffffffffffffffffffffffffff1681526020019081526020015f205f9054906101000a900460ff16158015610e91575060075f8473ffffffffffffffffffffffffffffffffffffffff1673ffffffffffffffffffffffffffffffffffffffff1681526020019081526020015f205f9054906101000a900460ff16155b90508015610f0b575f6064600384610ea991906115d6565b610eb39190611644565b90505f8184610ec29190611674565b90505f821115610ef957610ef88660065f9054906101000a900473ffffffffffffffffffffffffffffffffffffffff1684610f1e565b5b610f04868683610f1e565b5050610f17565b610f16848484610f1e565b5b505b505050565b5f73ffffffffffffffffffffffffffffffffffffffff168373ffffffffffffffffffffffffffffffffffffffff1603610f6e578060025f828254610f6291906116a7565b9250508190555061103c565b5f805f8573ffffffffffffffffffffffffffffffffffffffff1673ffffffffffffffffffffffffffffffffffffffff1681526020019081526020015f2054905081811015610ff7578381836040517fe450d38c000000000000000000000000000000000000000000000000000000008152600401610fee93929190611574565b60405180910390fd5b8181035f808673ffffffffffffffffffffffffffffffffffffffff1673ffffffffffffffffffffffffffffffffffffffff1681526020019081526020015f2081905550505b5f73ffffffffffffffffffffffffffffffffffffffff168273ffffffffffffffffffffffffffffffffffffffff1603611083578060025f82825403925050819055506110cd565b805f808473ffffffffffffffffffffffffffffffffffffffff1673ffffffffffffffffffffffffffffffffffffffff1681526020019081526020015f205f82825401925050819055505b8173ffffffffffffffffffffffffffffffffffffffff168373ffffffffffffffffffffffffffffffffffffffff167fddf252ad1be2c89b69c2b068fc378daa952ba7f163c4a11628f55a4df523b3ef8360405161112a919061114f565b60405180910390a3505050565b5f819050919050565b61114981611137565b82525050565b5f6020820190506111625f830184611140565b92915050565b5f81519050919050565b5f82825260208201905092915050565b5f5b8381101561119f578082015181840152602081019050611184565b5f8484015250505050565b5f601f19601f8301169050919050565b5f6111c482611168565b6111ce8185611172565b93506111de818560208601611182565b6111e7816111aa565b840191505092915050565b5f6020820190508181035f83015261120a81846111ba565b905092915050565b5f80fd5b5f73ffffffffffffffffffffffffffffffffffffffff82169050919050565b5f61123f82611216565b9050919050565b61124f81611235565b8114611259575f80fd5b50565b5f8135905061126a81611246565b92915050565b61127981611137565b8114611283575f80fd5b50565b5f8135905061129481611270565b92915050565b5f80604083850312156112b0576112af611212565b5b5f6112bd8582860161125c565b92505060206112ce85828601611286565b9150509250929050565b5f8115159050919050565b6112ec816112d8565b82525050565b5f6020820190506113055f8301846112e3565b92915050565b5f805f6060848603121561132257611321611212565b5b5f61132f8682870161125c565b93505060206113408682870161125c565b925050604061135186828701611286565b9150509250925092565b5f60ff82169050919050565b6113708161135b565b82525050565b5f6020820190506113895f830184611367565b92915050565b5f602082840312156113a4576113a3611212565b5b5f6113b18482850161125c565b91505092915050565b6113c381611235565b82525050565b5f6020820190506113dc5f8301846113ba565b92915050565b5f80604083850312156113f8576113f7611212565b5b5f6114058582860161125c565b92505060206114168582860161125c565b9150509250929050565b611429816112d8565b8114611433575f80fd5b50565b5f8135905061144481611420565b92915050565b5f80604083850312156114605761145f611212565b5b5f61146d8582860161125c565b925050602061147e85828601611436565b9150509250929050565b7f4e487b71000000000000000000000000000000000000000000000000000000005f52602260045260245ffd5b5f60028204905060018216806114cc57607f821691505b6020821081036114df576114de611488565b5b50919050565b7f496e76616c6964207472656173757279206164647265737300000000000000005f82015250565b5f611519601883611172565b9150611524826114e5565b602082019050919050565b5f6020820190508181035f8301526115468161150d565b9050919050565b5f6040820190506115605f8301856113ba565b61156d60208301846112e3565b9392505050565b5f6060820190506115875f8301866113ba565b6115946020830185611140565b6115a16040830184611140565b949350505050565b7f4e487b71000000000000000000000000000000000000000000000000000000005f52601160045260245ffd5b5f6115e082611137565b91506115eb83611137565b92508282026115f981611137565b915082820484148315176116105761160f6115a9565b5b5092915050565b7f4e487b71000000000000000000000000000000000000000000000000000000005f52601260045260245ffd5b5f61164e82611137565b915061165983611137565b92508261166957611668611617565b5b828204905092915050565b5f61167e82611137565b915061168983611137565b92508282039050818111156116a1576116a06115a9565b5b92915050565b5f6116b182611137565b91506116bc83611137565b92508282019050808211156116d4576116d36115a9565b5b9291505056fea26469706673582212204eed049fe6d98a2169bfd48c2b7a50d99961839e8e5e19331dbb720e3cccd07564736f6c63430008180033",
  "linkReferences": {},
  "deployedLinkReferences": {}
}